:0400000002009E322A
:03000B00021BE5F0
:0100130032BA
:03001B00021C279D
:03002300021CB705
:03002B00021C694B
:100030000000E2FBEAF2802C0000E0FBEAF0802402
:10004000E6B50202EBF62200E2B50202EBF2220074
:10005000E0B50202EBF02230F6E0A88220F5D3EA08
:10006000C6F582228B822230F6E6A88220F5D9805E
:01007000CFC0
:0600F700750A0075090006
:0301000002007189
:03007100020497EF
:10010300AF829000CEE0FE24FB500122EE2E2E9013
:1001130001167302012502013202028B02023E0222
:10012300025ABFAA028001229000CE7401F02290ED
:1001330000CFEFF09000CE7402F0BFA003020223C1
:10014300BFA1028037BFA502804DBFA6028071BF49
:10015300A702807CBFA8030201E6BFA90302020431
:10016300BFB0030201F3BFB1030201FABFC00280B3
:100173003DBFFE0122BFFF01220202349000321272
:100183001B9CD280121BC3C2809000D3E4F01211D7
:100193006D907530021B9C1211989000CE7404F080
:1001A3009000D123F0750A009000D004F0221211C0
:1001B300989000CE7404F0750A009000D003F022EA
:1001C3009000D37401F012116D90000174A6F02217
:1001D3009000D3E4F012116D9000CF74A4F090005E
:1001E30001F0229000D17408F09000CE7403F02245
:1001F3009000CE7403F02212116D90000174B1F0DF
:1002030022900032121B9CD280121BC3C28090002A
:10021300D3E0F5087401F012116D907530021B9C48
:1002230012116D900001E09000CFF09000CEE4F049
:10023300229000CFE4F09000CEF022750A009000E7
:10024300D0EFF0EF600A1211989000CE7404F02200
:100253009000CE7402F022E50A2402F582E4340011
:10026300F583EFF0050A9000D0E0B50A079000CEC1
:100273007402F0227490250A4001229000D0747019
:10028300F09000CE7402F022BF550280012290004C
:10029300CEE4F07509019000CFE0FFBFA0028022F9
:1002A300BFA1028017BFA4028012BFA602800DBFA8
:1002B300A7028008BFB002800DBFB1457582A012AE
:1002C3001DD275090022900003E09000D104F09044
:1002D3000002E0FF7E00C3EE9F5026EE75F002A4FD
:1002E3002404FC740035F0FD8C828D83E0FAA3E0D6
:1002F300FBEA8B02FB8C828D83EAF0EBA3F00E808A
:10030300D522AF82750B009000DAE0FE6009BE05CE
:100313000302045E0204709000D1E014F0C00712DF
:100323001198D007BFA502800FBFA80302040ABF1C
:10033300B00302041B020456900004E0FE7F009009
:100343000005E07C004207EC42068F0C8E0D900006
:1003530006E0FE7F00900007E07C004207EC4206C7
:100363008F0E8E0F900002E0FE7F00900003E07C72
:10037300004207EC42068F108E11900008E0F51240
:10038300900009E0F51390000AE0F514901F1EE4B5
:1003930093F54D901F22E493F551901F26E493F5B6
:1003A30055901F2AE493F559901F2BE493F55A9027
:1003B3001F1BE493F54AA3E493F54BA3E493F54C95
:1003C300901F1FE493F54EA3E493F54FA3E493F535
:1003D30050901F23E493F552A3E493F553A3E493BE
:1003E300F554901F27E493F556A3E493F557A3E43C
:1003F30093F558755B12755C00755D4090000C7544
:10040300F0401212FC804C75610375620075630045
:1004130075820012151A803B900002E0FFFD7E00FA
:100423002DFDEE33FEED2402FDEE3400FE74022DAD
:10043300FDE43EFE8D3E8E3F7540009000D0E0FE11
:100443001E1EEF2FFFEEC39FF54190000475F000D1
:100453001211DB9000DA7405F080129000D1E07085
:1004630007C287750B0180059000DAE4F0850B82E3
:10047300227F00D2B09003E8C007121B56121BBFA5
:10048300C2B09003E8121B56121BBFD0070FBF0266
:100493000040E022E4F515F516FEFFC007C0061282
:1004A3001DE9121E18D2B0C280C287121E31D29C1F
:1004B300D299D2AC121E4B121E4F121E53D2A9D286
:1004C300ABD2AF9000D3E4F012116D9000CF74A4BF
:1004D300F0900001F0C297120474121DEDD006D003
:1004E30007C007C006121E07D006D007E509701122
:1004F300C007C006121D6FAC82AD83D006D0078043
:10050300047C007D01C007C006C005C004121D6144
:10051300E582D004D005D006D007702AC007C006F4
:10052300C005C004121D5DE582D004D005D006D0FD
:10053300076013C007C006C005C004121CB4D00472
:10054300D005D006D007BC0036BD01339000CEE005
:100553007004FEFF80368E028F030ABA00010B8AF5
:10056300068B078E028F03C374309A74759B501CDD
:100573007E007F009000CEE4F09000CFF0800D8CE1
:1005830082C007C006120103D006D0079000CFE057
:10059300FDBD00030204E4BDA102803EBDA403022D
:1005A3000710BDA503020799BDA603020710BDA846
:1005B30003020799BDA9028021BDB003020799BDBB
:1005C300B1030207D9BDC00302083DBDFE03020803
:1005D30089BDFF0302088E0208AD9000D2E030E728
:1005E300749000C8C007C006121B9CD280121BC3A4
:1005F300D006D007C2809000CFE0FDBDA1028005E8
:10060300BDA944801BC007C00612116D900001E014
:100613009000CFF07582A3121943D006D00780272C
:100623009000D3E508F0C007C00612116D900001D9
:10063300E09000CFF09000D2E0547FF5177582ABC5
:100643001219B4D006D0079000D2E4F043C9207544
:1006530009000204E4C007C006121BDBE582D006D2
:10066300D00760659003E8C007C006121B9CD280C8
:10067300121BC3D006D007C2809000CFE0FDBDA1FE
:10068300028008BDA90280220204E47582A2C00789
:10069300C006121DD275090012116DD006D0079045
:1006A3000001E09000CFF00204E47582AAC007C005
:1006B30006121DD275090012116DD006D0079000E5
:1006C30001E09000CFF00204E490001575F040C003
:1006D30007C0061210C1E582D006D00770030204DA
:1006E300E4AC15AD168C02747F5DFB8A828B835359
:1006F3000580ED2354017D004D24FFE433F539C01B
:1007030007C006120E5AD006D0070204E49000D2A6
:10071300E0FD30E73D9000CFE0FCBCA4028005BCC7
:10072300A62580107582A4C007C006121943D006FF
:10073300D0078013747F5DF5177582A6C007C006C6
:100743001219B4D006D0079000D2E4F043C92002B6
:1007530004E490001575F040C007C0061210C1E50F
:1007630082D006D00770030204E4AC15AD168C02E8
:10077300747F5DFB8A828B83530580ED2354017D57
:10078300004D24FFE433F539C007C006120E5AD0DA
:1007930006D0070204E49000CEE060030204E49074
:1007A30000CFE0F582C007C006120305E582D0063C
:1007B300D00770030204E47582A0C007C006121DAF
:1007C300D212116DD006D007750900900001E09098
:1007D30000CFF00204E49000D2E030E7197582B153
:1007E300C007C006121A33D006D0079000D2E4F037
:1007F30043C9200204E490001575F040C007C00609
:100803001210C1E582D006D00770030204E4AC15D0
:10081300AD168C02747F5DFB8A828B83530580ED5A
:100823002354017D004D24FFE433F56BC007C0065C
:100833001216E4D006D0070204E49000CEE0600371
:100843000204E4900002E0FC7D00900003E07A00E3
:100853004205EA42048D158C16D2808D828C83C0AA
:1008630007C006121B9C121BC3C2807582A0121DF7
:10087300D212116DD006D007750900900001E090E7
:1008830000CFF00204E4121E0B80FE758204C00741
:10089300C006121DD212116DD006D0077509009043
:1008A3000001E09000CFF00204E49000CFE4F002F6
:0208B30004E45B
:101F0B005E011A04622A0802080109000B1F8003F4
:101F1B00111F8002131F8002151F8002000000009A
:011F2B00189D
:041F6E00000000006F
:1008B5002222AF827E00EF30E709EF2FFD741D6D18
:1008C500FF8003EF2FFF0EBE080040EA8F8222E56E
:1008D50083C313C58213C582C313C58213C582F5AD
:1008E5008322AE82AF83E519C3951BFCE51A951CDF
:1008F500FDC3EC9EED9F5011E51B2519FCE51C354C
:100905001AFDC3EE9CEF9D4004C2008002D200A2F6
:1009150000E433F58222AE82AF838522828523836C
:10092500C007C0061208D4AC82AD83D006D0078CB0
:10093500028D03C374F49A74019B50067AF47B010B
:1009450080048C028D038A048B058C028D03C3EA17
:100955009464EB940050067A647B0080048C028DCD
:10096500038A1B8B1C85221985231A8E828F83028D
:1009750008E7858233753400E53375F006A42472E3
:10098500FC740035F0FD74042CFAE43DFB8A828B7F
:1009950083E070338C828D83A3A3A3A3A37408F093
:1009A500751900751A70751B0090000275F000C06E
:1009B50005C004C003C002121EB1D002D003D0048A
:1009C500D0059000DEE4F0C002C00374012CF8E409
:1009D5003DF988828983E0252AFBE4352BFEAF2C7F
:1009E5008B828E838FF0121EEBFB5303077F00EB88
:1009F5002BFBEF33FFEB2527FBEF3528FFAE298BCC
:100A0500828F838EF0121EEBF522A3121EEBF523C7
:100A1500852582852683C005C004C003C002C001A8
:100A2500C00012091BE582D000D001D002D003D04E
:100A350004D005D003D0026063C002C00388828958
:100A450083E0FF252AFAE4352BFBAE2C8A828B83C3
:100A55008EF0121EEBFA530208E423CAC423541F76
:100A65006ACA541FCA6ACA30E40244E04A24FFE451
:100A750033B524028006D003D0028026D003D002ED
:100A8500EF700A9000D8E525F0E526A3F088828965
:100A950083E0FF0F88828983EFF08006888289834F
:100AA500E4F0C000C00174022CF535E43DF536854F
:100AB5003582853683E0252EF8E4352FF9AF308869
:100AC5008289838FF0121EEBF85300077F00E82818
:100AD500F8EF33FFE82527F8EF3528FFAE298882A0
:100AE5008F838EF0121EEBF522A3121EEBF52385E4
:100AF5002582852683C005C004C003C002C001C08D
:100B05000012091BE582D000D001D002D003D00429
:100B1500D005D001D0006069C000C001853582854F
:100B25003683E0FF252EF8E4352FF9AE308882892B
:100B3500838EF0121EEBF8530008E423C8C4235437
:100B45001F68C8541FC868C830E40244E04824FF41
:100B5500E433B524028006D001D000802CD001D02A
:100B650000EF700A9000D6E525F0E526A3F085355F
:100B750082853683E0FF0F853582853683EFF080E9
:100B850008853582853683E4F088828983E070386C
:100B9500853582853683E0702FC2B08C828D83E4E3
:100BA500F088828983F0853582853683F08C828D45
:100BB50083A3A3A3F08A828B83F08C828D83A3A366
:100BC500A3A3A3F075820022C000C0018A828B8393
:100BD500E0FFA9327E0019B9FF011E8F007F00E8F2
:100BE500B50106EFB506028006D001D0008007D01A
:100BF50001D000753401C002C00388828983E0FFFB
:100C0500AB2D7E008534378E38EBC39537FBEE95DB
:100C150038FE7A00EFB50306EAB506028006D00372
:100C2500D002803FD003D002D2B088828983E4F01D
:100C3500853582853683F08A828B83E0FF0F8A8231
:100C45008B83EFF074052CFEE43DFFC000C0018EE0
:100C5500828F83E0F9198E828F83E9F0D001D0006D
:100C6500020D21C000C001853582853683E0FFA9CC
:100C7500317E00E9C39537F9EE9538FE8F007F0088
:100C8500E8B50106EFB506028007D001D000020DD8
:100C950021D001D000D2B088828983E4F0853582E5
:100CA500853683F08A828B83E0FF0F8A828B83EF00
:100CB500F074052CFEE43DFFC000C0018E828F83D9
:100CC500E0F9198E828F83E9F08A828B83E0F879C7
:100CD5000018B8FF0119E9C423C8C423541F68C804
:100CE500541FC868C830E40244E0E82402F537E43C
:100CF5003400F538853782853883E0F98E828F8315
:100D0500E0F5F005F07401800225E0D5F0FB420125
:100D1500853782853883E9F0D001D00074052CFE33
:100D2500E43DFF8E828F83E0706CC000C0018A8233
:100D35008B83E0F8790018B8FF0119E9C423C8C40A
:100D450023541F68C8541FC868C830E40244E0E84B
:100D55002402F582E43400F583E0F99000DEE069D1
:100D6500F582C007C006C005C004C003C002C001AB
:100D7500C0001208B7E582D000D001D002D003D060
:100D850004D005D006D0079000DEF08E828F8374E4
:100D950008F0D001D0008A828B83E0C395325003DE
:100DA500020E56C007C006C005C004C003C002C07D
:100DB50001C000121BD1E582D000D001D002D003C2
:100DC500D004D005D006D00760059000DDE4F0C062
:100DD50006C0079000DEE0FF9000DDE0FEEFB506FF
:100DE50006D007D0068040D007D006C007C006C091
:100DF50005C004C003C002C001C000121BC7900398
:100E050020121B56D000D001D002D003D004D0054B
:100E1500D006D0079000DEE09000DDF053C9DF90EA
:100E250000D274804533F0C2B08C828D83E4F088A3
:100E3500828983F0853582853683F08C828D83A304
:100E4500A3A3F08A828B83F08E828F83F075820153
:100E55002275820022AE82AF838E048F05C3EC9487
:100E650064ED9400501C900072E4F0900073F090D3
:100E75000074F0900075F0900076F0900077F0C265
:100E8500B0229000D3E0FB6007BB0103020F4D22A7
:100E9500900072E0FB705EC374949C74119D4001D8
:100EA50022E5396001228B020A0A900072EAF0906D
:100EB50000D4EEF0EFA3F075191F751A008C828D22
:100EC50083C007C006121E88AC82AD83D006D0074A
:100ED500900078ECF0EDA3F0EC2CF9ED33FAEC2969
:100EE500FCED3AFD90007AECF0EDA3F090007CEE7D
:100EF500F0EFA3F022BB0202800122752778752846
:100F050000752900901F40E493F52AA3E493F52B7F
:100F1500A3E493F52C901F43E493F52D901F44E42F
:100F250093F52EA3E493F52FA3E493F530901F4793
:100F3500E493F531901F4CE493F5328539248E25E1
:100F45008F26758200020977900072E0FD901F3FA1
:100F5500E493FCC3ED9C4003021001901F3CE49315
:100F6500F9A3E493FAA3E493FBED29F9E43AFA89AA
:100F7500828A838BF0121EEBF9740859FAE423CAAE
:100F8500C423541F6ACA541FCA6ACA30E40244E023
:100F95004A24FFE433B53902800122901F38E493D7
:100FA500F8A3E493FAA3E493FB5301077D00E92931
:100FB500F9ED33FDE928F8ED3AFA88828A838BF05A
:100FC500121EEBF522A3121EEBF5238E828F8312E0
:100FD500091BE582600C900072E0FD0D900072ED3A
:100FE500F022900072E4F0900073F0900074F0909D
:100FF5000075F0900076F0900077F022900072E096
:10100500B50459901F38E493F527A3E493F528A375
:10101500E493F529901F40E493F52AA3E493F52B77
:10102500A3E493F52C901F43E493F52D901F44E41E
:1010350093F52EA3E493F52FA3E493F530901F4782
:10104500E493F531901F4CE493F5328539248E25D0
:101055008F26758200120977E58260002285821944
:1010650085831A9000E9E0FDFB7C0074012BF9E40F
:101075003CFA9000E8E0F8FE7F00E9B50605EAB520
:10108500070122E8700C0BBB00010CBB0404BC007B
:101095000122ED75F002A424E0F582740035F0F527
:1010A50083E519F0E51AA3F09000E9E02401F0E0EA
:1010B500FFBF040040059000E9E4F022AD82AE8355
:1010C500AFF0C007C006C005121E43AC82D005D0E4
:1010D50006D0079000E9E0FB9000E8E0FAEBB502E6
:1010E500047582002253C9DFEA75F002A424E0F5F5
:1010F50082740035F0F583E0FAA3E0FB8D828E83E0
:101105008FF0EA121ED0A3EB121ED09000E8E02467
:1011150001F0E0FFBF040040059000E8E4F08C8298
:10112500121E4775820122121E7CAE82AF83C00754
:10113500C006121B18D006D0078E048F0574802DAB
:10114500401CA296E433F53AB401009201E433035E
:101155005480FDE44EF582ED4FF583021062900058
:10116500E8E4F09000E9F022751900751A06751B80
:101175000090007275F000121EB143C920121E5A6C
:1011850090000A121B9C121BC39000DAE4F0900039
:10119500D2F022121E61121B1453C9DF121BC79015
:1011A50000DAE4F022E582FFF53B24FF92B0E53B4F
:1011B50024FF9287853C82853D8375190A751A003F
:1011C500C007121E88121B79121BC3D007EFB4018A
:1011D50000E433F5822285824285834385F0447C91
:1011E50001A93EAA3FAB4089828A838BF0121EEB90
:1011F500F8530088C3E498E433F545754600C3E524
:1012050046954140030212F9E545601CE54629FD76
:10121500E43AFE8B078D828E838FF0121EEB2354EA
:101225000124FFE433FD80028C05ED24FFE433FD4A
:10123500E54629F547E43AF5488B498547828548CF
:10124500838549F0121EEBC4540FFF5307077E0038
:10125500EF2FFFEE33FEEF2542F8EE3543FEAF44A8
:1012650088828E838FF0121EEBF53CA3121EEBF5E0
:101275003D8D82C003C002C0011211AAAF82D00108
:10128500D002D003E54560138547828548838549AB
:10129500F0121EEBA2E3E433FE80028F06EE24FF7C
:1012A500E433FEE54629F8E43AFD8B0788828D8311
:1012B5008FF0121EEBF85300077F00E828F8EF3394
:1012C500FFE82542F8EF3543FFAD4488828F838DD3
:1012D500F0121EEBF53CA3121EEBF53D8E82C0030A
:1012E500C002C0011211AAAC82D001D002D0030500
:1012F50046021203C2B022AD82AE83AFF0756080A4
:101305007B00C3EB954D506DEB254AF8E4354BF961
:10131500AA4C888289838AF0121EEBF8740858F962
:10132500E423C9C423541F69C9541FC969C930E4DA
:101335000244E04924FFE433F95300077A00E82822
:10134500F8EA33FAE82DF8EA3EFA8F0488828A83B0
:101355008CF0121EEBF53CA3121EEBF53D8982C005
:1013650007C006C005C0031211AAD003D005D006D8
:10137500D0070B808D755F00755E00C3E55E955ADD
:1013850040030214A2E55F255BF8E4355CF9AA5D2C
:10139500888289838AF0121EEBF8E560587077FA27
:1013A500C3EA95514003021490EA254EF8E4354FFF
:1013B500F9AB50888289838BF0121EEBF8740858BC
:1013C500F9E423C9C423541F69C9541FC969C93025
:1013D500E40244E04924FFE433F95300077B00E8C5
:1013E50028F8EB33FBE82DF8EB3EFB8F0488828B66
:1013F500838CF0121EEBF53CA3121EEBF53D8982A2
:10140500C007C006C005C0021211AAD002D005D07F
:1014150006D0070A808A7C00C3EC9555506DEC25F3
:1014250052F9E43553FAAB5489828A838BF0121E44
:10143500EBF9740859F8E423C8C423541F68C85449
:101445001FC868C830E40244E04824FFE433F85379
:1014550001077B00E929F9EB33FBE92DF9EB3EFBAD
:101465008F0289828B838AF0121EEBF53CA3121E34
:10147500EBF53D8882C007C006C005C0041211AA5D
:10148500D004D005D006D0070C808DE560C313F5D8
:10149500607005055F756080055E0213807C00C382
:1014A500EC9559506DEC2556F9E43557FAAB58894A
:1014B500828A838BF0121EEBF9740859F8E423C86D
:1014C500C423541F68C8541FC868C830E40244E0E8
:1014D5004824FFE433F85301077B00E929F9EB338E
:1014E500FBE92DF9EB3EFB8F0289828B838AF01293
:1014F5001EEBF53CA3121EEBF53D8882C007C00626
:10150500C005C0041211AAD004D005D006D0070C1E
:10151500808DC2B022E58275F015A42438FE741FB3
:1015250035F0FF74072EF582E43FF583E493F54D1E
:10153500740B2EF582E43FF583E493F551740F2E79
:10154500F582E43FF583E493F55574132EF582E4B3
:101555003FF583E493F55974142EF582E43FF58342
:10156500E493F55A8E828F83E493FBA3E493FCA363
:10157500E493FD8E828F83A3A3A3A3E493F54AA3EB
:10158500E493F54BA3E493F54C74082EF582E43F00
:10159500F583E493F54EA3E493F54FA3E493F55057
:1015A500740C2EF582E43FF583E493F552A3E4939E
:1015B500F553A3E493F55474102EF582E43FF583B7
:1015C500E493F556A3E493F557A3E493F5588561A1
:1015D5005B85625C85635D8B828C838DF00212FC7A
:1015E500AE82AF83C3EE942CEF94019202B3E43341
:1015F500F58222AE82AF83900086E0FCA3E0FD7405
:10160500805D2354017B004B7008E564600475829E
:10161500002253057F8C228D238E828F8302091B26
:10162500AE82AF83756A008E03EFC313CB13CBC3B2
:1016350013CB13CBFC8E01EFC423C9C423541F69FC
:10164500C9541FC969C9FAE92BFBEA3CFC7A009029
:1016550000DFE0F9C3EA9940030216E08B008C0134
:10166500EA75F002A42478F582740035F0F583E07C
:10167500F568A3E0F569C3E56898E56999500280C6
:10168500048868896985681B85691CEA75F002A468
:101695002478F582740035F0F583E0F519A3E0F5BB
:1016A5001A8E828F83C007C006C004C003C0021211
:1016B50008E7E582D002D003D004D006D007601534
:1016C500A865A966AD67888289838DF0E56A121ED3
:1016D500D0758201220A8A6A02165475820022AEEA
:1016E50082AF838E048F05C3EC9464ED940050069D
:1016F5009000DAE4F0229000DAE0FB600CBB020215
:101705008040BB03030217DF22C2B08E828F83C0E5
:1017150007C0061215E5E582D006D007700122E55F
:101725006BFA3395E0EA035480FB7A00900086EA71
:101735004EF0EB4FA3F0900088E4F09000DA7402CD
:10174500F022856B648E828F83C007C006C005C0FA
:10175500041215F8E582D004D005D006D007603212
:10176500900088E024FB5023D2B09000DFE4F09095
:1017750000DCF09000DBF0900089F09000DEF09046
:101785000002F09000DA7403F0803E9000DAE4F095
:101795008037900086E0FAA3E0FB53037FC3EA9C01
:1017A500EB9D501EE56BFC3395E0EC035480FD7C0E
:1017B50000900086EC4EF0ED4FA3F0900088E4F029
:1017C5008007900088E02401F0900088E0FDBDE0EE
:1017D500005001229000DAE4F022900089E0240113
:1017E500F0E0FD900088E0C39D50030218BA7565CE
:1017F5006C7566007567408E828F83C007C00612C0
:101805001625E582D006D00770299000DFE075F037
:1018150002A42478F582740035F0F583EEF0EFA389
:10182500F09000DFE0F56C04F0E024F8500590003E
:10183500DAE4F09000DBE0601E9000DCE02402F5C5
:1018450082E43400F583E56CC454F0FDE56B035484
:10185500804205EDF080539000DCE02402FDE43485
:1018650000FC8D828C83E0FBE56BC40354F8456C6A
:1018750042038D828C83EBF09000DCE02402F5823C
:10188500E43400F583E0FD9000DEE06DF58212089A
:10189500B7E5829000DEF09000DCE02401F0E0FD89
:1018A500BD700040059000DAE4F09000DBE0B40183
:1018B50000E433F022856B648E828F831215F8E580
:1018C500826075121BD1E58260059000DDE4F09021
:1018D50000DEE0FF9000DDE0FEEFB506028051126C
:1018E5001BC7900320121B569000DEE09000DDF030
:1018F50053C9DF900002E0FF9000DFE0C454F0FE22
:10190500900086E0A3E0FD5305808D04EC4E420770
:10191500900002EFF0900086E0FEA3E0FF53077F02
:10192500900086EEF0EFA3F09000D2E043E080F067
:0E193500C2B09000DAE4F0229000DAE4F02272
:101F2C005E011A04622A0802080109002C1F8003B2
:101F3C00321F8002341F8002361F80020000000016
:011F4C00187C
:101F7200000000000000000000000000000000005F
:081F8200000000000000000057
:10194300AF827582AAC007121DA7D0078F82121D0E
:10195300A79000D4E0A3E0F582121DA79000D4E085
:10196300F582121DA79000D8E0A3E0F582121DA70F
:101973009000D8E0F582121DA79000D6E0A3E0F511
:1019830082121DA79000D6E0F582121DA77F00BF2B
:1019930003005017EF2402F582E43400F583E0F5E9
:1019A30082C007121DA7D0070F80E4758255021D60
:1019B300A7AF827E007582AAC007C006121DA7D0FA
:1019C30006D0078F82C006121DA7D006E51775F053
:1019D30015A42459FD741F35F0FF74142DF582E40A
:1019E3003FF583E493FF7D00C3EE9F50098E04749B
:1019F300082CFE0D80F2EDFF04F582C007121DA72F
:101A0300851782121DA7D0077E00C3EE9F501BEEE1
:101A13002402F582E43400F583E0F582C007C006B2
:101A2300121DA7D006D0070E80E0758255021DA7B0
:101A3300AF827582AAC007121DA7D0078F82121D1D
:101A4300A79000DFE004F582121DA7121D61E58255
:101A5300700C121D5DE58260F2121CB480ED7F00F4
:101A63009000DFE0FEC3EF9E5036EF75F002A42432
:101A730078FD740035F0FE8D828E83E0A3E0FB7465
:101A83007F5BF582C007C006C005121DA7D005D035
:101A9300068D828E83E0F582121DA7D0070F80C0CA
:101AA300900086E0A3E0FE747F5EF582121DA7908E
:101AB3000086E0F582121DA7121D61E582700C12EB
:101AC3001D5DE58260F2121CB480ED7F009000DCA6
:101AD300E0FEC3EF9E5034EF2402F582E43400F5B8
:101AE30083E0F582C007121DA7D0070FC007121DA0
:101AF30061E582D00770D6C007121D5DE582D0076D
:101B030060EAC007121CB4D00780E1758255021D3C
:011B1300A72A
:101F4D005E011A04622A0802080109004D1F800370
:101F5D00531F8002551F8002571F80020000000092
:011F6D00185B
:101B140053C9F02253C8FC75CD0075CC0043C801ED
:101B240022AF828F8C8F8A22AF828F8D8F8B22AED1
:101B340082AF8353D9FC43D90175825FC007C006C5
:101B4400121B25D006D00790008AEEF0EFA3F0D246
:101B54008C22AE82AF8353D9FC43D902758258C01C
:101B640007C006121B25D006D00790008AEEF0EFBE
:101B7400A3F0D28C22AE82AF8353D9F343D9047538
:101B8400825FC007C006121B2CD006D00790008CC1
:101B9400EEF0EFA3F0D28E22AE82AF8353D9F3439B
:101BA400D908758258C007C006121B2CD006D0076E
:101BB40090008CEEF0EFA3F0D28E22208CFD222038
:101BC4008EFD22C28CC28D22C28EC28F22A28CB301
:101BD4009203E433F58222A28EB39204E433F582B5
:101BE40022C0E0C0F0C082C083C007C006C0D07568
:101BF400D00090008AE024FFFEA3E034FFFF9000B1
:101C04008AEEF0EFA3F090008AE0F5F0A3E045F04F
:101C14007002C28CD0D0D006D007D083D082D0F04E
:101C2400D0E032C0E0C0F0C082C083C007C006C0AC
:101C3400D075D00090008CE024FFFEA3E034FFFFB9
:101C440090008CEEF0EFA3F090008CE0F5F0A3E0B0
:101C540045F07002C28ED0D0D006D007D083D08297
:101C6400D0F0D0E032C021C0E0C0F0C082C083C058
:101C740007C006C005C004C003C002C001C000C044
:101C8400D075D000121E6512112C121E78D0D0D03F
:101C940000D001D002D003D004D005D006D007D0A4
:0C1CA40083D082D0F0D0E0D02102007488
:0300FD0075180172
:101CB00085829922D29922C021C0E0C0F0C082C0A2
:101CC00083C007C006C005C004C003C002C001C075
:101CD00000C0D075D00074035598FFF45298EF30CF
:101CE000E0209000EAE0248EF582E43400F583E5FC
:101CF00099F09000EAE004F0E0FEBE20059000EAD2
:101D0000E4F0EF30E13A9000EEE060249000EDE086
:101D100024AEF582E43400F583E0F582121CB09025
:101D200000EDE004F09000EEE014F0751800800380
:101D30007518019000EDE0FFBF20059000EDE4F084
:101D4000D0D0D000D001D002D003D004D005D0062E
:101D5000D007D083D082D0F0D0E0D0213285188255
:101D6000229000EEE06004758200227582012290CC
:101D700000ECE0FF9000EAE0FEEFB5060490010001
:101D8000229000ECE0248EF582E43400F583E0FE3E
:101D90007F009000ECE004F0E0FDBD20059000EC39
:101DA000E4F08E828F8322AF829000EBE0FEBE20B3
:101DB000059000EBE4F09000EBE024AEF582E43413
:101DC00000F583EFF09000EBE004F09000EEE0040B
:101DD000F022AF827582AAC007121DA7D0078F829A
:091DE000121DA7758255021DA712
:051F8A00000000000052
:101DE900538E8F2275F75575F7AA75F75A75B62868
:101DF9002275F75575F7AA75F75A53B6DF2275B7E5
:101E0900552275F75575F7AA75F75A75E7FF2253E5
:101E1900D3FE43D20153D37F43D28053D57F43D4DA
:101E29008053DBFE43DA0122439180D29E438780AF
:101E390043D91075BA0375AACC2285C98222858235
:101E4900C922438902224389202275C16075C8814C
:101E59002253C8FC43C8012253C8FC22AFC37E00E9
:101E6900ACC27D00EC4206ED42078E828F8322537D
:101E7900C9FD22E583C313C58213C582F583227A7E
:101E890010E4FBFCE58225E0F582E58333F583EB7D
:101E990033FBEC33FCEB9519F5F0EC951A4006FC95
:081EA900ABF0438201DADD22F7
:0600CD00E478FFF6D8FD07
:101EB100AC82AD83AE1AAF1BBE0004EF600C1F0FE6
:0F1EC100E519121ED0A3DEFADFF88C828D832282
:1000AB007921E94400601B7A01901F6E78CE75A010
:1000BB0000E493F2A308B8000205A0D9F4DAF275B4
:0200CB00A0FF94
:10007400C000A88118C0D0B6001B18B630004015C7
:10008400B657005010C0E0E65407B406005004E62A
:0A00940054F8F6D0E0D0D0D00032CE
:101ED00020F71130F6138883A88220F509F6A8832D
:0B1EE0007583002280FEF280F5F022E6
:1000D3007800E84400600A790175A000E4F309D8C8
:1000E300FC78CDE84400600C7901900001E4F0A3B2
:0400F300D8FCD9FA62
:0D009E0075816C121F07E58260030200717E
:101EEB0020F71430F6148883A88220F507E6A88320
:101EFB0075830022E280F7E49322E02275820022B0
:00000001FF
